:020000040800F2
:10000000FCFF0020F1200000E9200000E9200000B2
:10001000E9200000E9200000E9200000E9200000BC
:10002000E9200000E9200000E9200000E9200000AC
:10003000E9200000E9200000E9200000E92000009C
:10004000E9200000E9200000E9200000E92000008C
:10005000E9200000E9200000E9200000E92000007C
:10006000E9200000E9200000E9200000E92000006C
:10007000E9200000E9200000E9200000E92000005C
:10008000E9200000E9200000E9200000E92000004C
:10009000E9200000E9200000E9200000E92000003C
:1000A000E9200000E9200000E9200000E92000002C
:1000B000E9200000E9200000E9200000E92000001C
:1000C000E9200000E9200000E9200000E92000000C
:1000D000E9200000E9200000E9200000E9200000FC
:1000E000E9200000E9200000E9200000E9200000EC
:1000F000E9200000E9200000E9200000E9200000DC
:10010000E9200000E9200000E9200000E9200000CB
:10011000E9200000E9200000E9200000E9200000BB
:10012000E9200000E9200000E9200000E9200000AB
:10013000E9200000E9200000E9200000E92000009B
:10014000E9200000E9200000E9200000E92000008B
:1001500081B000F218010A68C2F3400181F0010188
:10016000C9B2C8B201B0704783B0CDF800E000F06A
:10017000FF031A09104603F00F02134614E0194A50
:1001800002921FE0184A02921CE0184A029219E0FB
:10019000174A029216E0174A029213E0164A029298
:1001A00010E0164A02920DE00028E8D00128E9D0BC
:1001B0000228EAD00328EBD00428ECD00528EDD0A3
:1001C0000628EED0012212B29A40ADF8042002981F
:1001D0000A46BDF8041000F0DFFCDDF800E003B0D3
:1001E000704700BF00080140000C014000100140B2
:1001F0000014014000180140001C01400020014093
:1002000081B000F214010A6800F2180109680904BB
:1002100042EA0101084601B07047FFFF014800684B
:10022000704700BF6801002001490860704700BFA7
:10023000A481224201490860704700BFA881224280
:1002400001490860704700BFA0812242014908604F
:10025000704700BF9C81214201490860704700BF80
:100260009881214201490860704700BFB481224251
:1002700001490860704700BF8801224201490860B7
:10028000704700BF9001214201490860704700BFDC
:10029000A801224201490860704700BF8001214245
:1002A00001490860704700BFB0012242014908605F
:1002B000704700BFAC01224201490860704700BF8F
:1002C0009481224201490860704700BF9881224210
:1002D00001490860704700BFB081224201490860AF
:1002E000704700BF9881214281B0CDF800E00B46F5
:1002F000FFF786FF00EA03029A4240F2000200D1B3
:100300000122D0B2DDF800E001B0704781B0CDF835
:1003100000E04FF000021949884207D118490B68E4
:1003200018490A6818490A601C460BE017498842B8
:1003300007D117490B6817490A6813490A601C4618
:1003400000E0144614490C6003461846FFF700FF0E
:1003500070B91149096851B12CB905200A4C2468BB
:10036000A047002005E0611E08460446FFE7ECE7D1
:100370000120DDF800E001B0704700BF00540040EC
:1003800044010020700100206C0100200058004052
:1003900048010020740100204C0100200149086040
:1003A000704700BF9C81214201490860704700BF2F
:1003B000B881224201490860704700BF8C01224287
:1003C00001490860704700BF94012142014908605B
:1003D000704700BFA801224201490860704700BF72
:1003E000B081224201490860704700BFB00122423B
:1003F00001490860704700BFAC01224282B0CDF8CD
:1004000000E0034619460191FFF708FF40F2E8318A
:1004100000FB01F201990A601F490978C1F3031139
:10042000C8B21E4909180878C0B21A1D1968C1401F
:10043000116019490988C1F3022188B217490918C6
:100440000878C0B203F20802191D0968C1401160A2
:1004500011490988C1F3C22188B2104909180878E6
:10046000C0B203F20C02191D0968C14011600A49AB
:100470000988C1F3813188B2094909180978C8B2DD
:1004800003F2100203F20C010968B1FBF0F11160F4
:10049000DDF800E002B0704704100240A82500001B
:1004A000D425000081B0CDF800E0012252B23E49CF
:1004B0000A6000F268010B686FF0006103EA010254
:1004C000144603F00061C90E0B4602F00041B1F181
:1004D000004F02D135490A6801E035490A6804F441
:1004E0007021090C0E464FF6FF7104EA01010D461A
:1004F00004F44011B1F5401F0DD16FF0706102EAB4
:1005000001010E462A490A686FF070610A402849C5
:100510000A60324616E004F48011B1F5801F09D15B
:100520004FF00301B140C94302EA010141F070619B
:100530000A4607E0610D090105FA01F1C9430A40C5
:1005400042F070622BB1610D090105FA01F10A4315
:10055000FFE704F00041B1F1004F02D113490A60F6
:1005600001E013490A6040F2000A81464FEA8A011D
:1005700009EB01010968B1F1FF3F10D009F1340125
:100580004FEA8A03C91809680A4609EB030109689A
:1005900008461146FFF7E8FD0AF1010AE6E7DDF833
:1005A00000E001B0704700BF000342421C00014060
:1005B0000400014081B0194900EA01010846002207
:1005C0000EE0042022E0082020E010201EE0202081
:1005D0001CE040201AE0802018E040F2001015E0F6
:1005E0000F498842EDD00F498842ECD00E4988422D
:1005F000EBD00E498842EAD00D498842E9D00D4936
:100600008842E8D00C498842E7D010460B49096877
:1006100041EA000209490A6001B0704700FCFFFF8F
:1006200000080140000C014000100140001401408E
:1006300000180140001C0140002001401810024039
:1006400083B0CDF800E003464FF0000026498B420E
:1006500006D126490C6826490A6826490A600BE03B
:1006600025498B4207D12549086825490A6821494F
:100670000A60044600E0044622490C60019402939B
:100680001846FFF743FE029B019C10B94FF6FF701E
:1006900025E00122196862F30821196003F21401B0
:1006A0000A68C2F3402111B14FF6FF7017E02546EA
:1006B0001C4615492046FFF717FE78B9114909680D
:1006C00059B135B906200B4C2468A0474FF6FF708E
:1006D00005E0691E08460546FFE7EAE70020DDF869
:1006E00000E003B0704700BF005400404401002008
:1006F000700100206C0100200058004048010020DB
:10070000740100204C0100200100030081B0016849
:10071000C1F3401001B0704782B0CDF800E0CFB215
:1007200001469846029B4FF000064FF00005C44C6E
:10073000A14207D1C34CD4F80090C34C2568C34CE8
:1007400025600BE0C24CA14207D1C24C2068C24CCC
:100750002568BE4C2560814600E0A946BF4CC4F820
:100760000090F4E101F210057C00A4B244F0010411
:10077000A4B22C60019616464F46019A01F2140469
:100780002568C5F3400464B9B44C246844B127B962
:100790000320AE4C2468A047E2E1781E0746FFE73D
:1007A000ECE700250C6865F38A240C6001F2140460
:1007B000206800BF01F218042468240440EA0404FD
:1007C0002046012B05D101250C6865F349240C60F6
:1007D00004E001250C6865F308240C609F4C256833
:1007E0009146984637460E469D493046FFF77CFDB8
:1007F00068B99A4C24684CB125B90320934C2468FD
:10080000A047ADE16C1E20460546FFE7ECE707EB8D
:10081000090506F2100424682C70B8F1010F13D1F9
:100820008E4C216830460568C5F340245CB98B4C7A
:1008300024683CB121B90320844C2468A0478FE18F
:10084000491EFFE7EFE712E0844C21683046056857
:10085000C5F300245CB9814C24683CB121B9032064
:100860007A4C2468A0477BE1491EFFE7EFE777E178
:1008700001250C6865F38A240C6001250C6865F37A
:10088000CB240C6001F210057C00A4B244F00104FA
:10089000A4B22C604F4601F214042568C5F340044D
:1008A00064B96E4C246844B127B90320674C2468AE
:1008B000A04755E1781E0746FFE7ECE701F2140474
:1008C000206800BF01F21804246824042043002596
:1008D0000C6865F38A240C60604C276801F21404EC
:1008E0002568C5F3800464B95C4C246844B127B919
:1008F0000320564C2468A04732E1781E0746FFE7E4
:10090000ECE7012B05D101250C6865F349240C6047
:1009100004E001250C6865F308240C60951901F2C8
:10092000100424682C70741C151901F2100424683A
:100930002C70012B14D1494C22680D68C5F340245A
:1009400064B9464C246844B122B903203F4C246862
:10095000A04705E1501E0246FFE7EEE7084613E018
:100960003E4C22680D68C5F3002464B93B4C2468F2
:1009700044B122B90320354C2468A047F0E0501E52
:100980000246FFE7EEE708460025046865F3CB243E
:100990000460E5E001250C6865F38A240C6001F22F
:1009A00010057C00A4B244F00104A4B22C604646B9
:1009B000C846894617461D462A494846FFF794FC13
:1009C00078B9264C24685CB1B8F1000F04D103203B
:1009D0001E4C2468A047C3E0A8F101008046FFE751
:1009E000EAE70021A8464A46B1463B46A9F103047E
:1009F000A14222D2194C25688A4617461E4618493C
:100A00003846FFF771FC60B9144C246844B125B92D
:100A100003200E4C2468A047A2E0681E0546FFE7AD
:100A2000EDE706EB0A0507F2100424682C700AF1C2
:100A30000104214633463A46D8E7084C00F014B882
:100A40000054004044010020700100206C0100208F
:100A50000058004048010020740100204C01002093
:100A60004000030002000300276801930B4616466E
:100A70004246019906F214042568C5F3800464B95E
:100A8000394C246844B127B90320384C2468A04766
:100A900066E0781E0746FFE7ECE70025346865F35B
:100AA0008A243460CD1806F2100424682C70581C77
:100AB0002D4C23681746024606F214042568C5F338
:100AC000800464B9284C246844B123B90320274C1E
:100AD0002468A04744E0581E0346FFE7ECE7012FD7
:100AE00007D10125346865F3492434601046324645
:100AF00021E00125346865F3082434601A4CD4F8E9
:100B0000008017460D461A493046FFF7EDFB78B9CD
:100B1000154C24685CB1B8F1000F04D10320134CCC
:100B20002468A0471CE0A8F101008046FFE7EAE73F
:100B30002946324638460D1802F2100424682C70FB
:100B4000441C0D1902F2100424682C7008E0B8F15E
:100B5000010F3FF407AEB8F1020F3FF489AE19E779
:100B6000DDF800E002B070474C0100206C0100206D
:100B70000100030081B00168C1F3801001B070472B
:100B800081B00268C2F3401101B9FAE7011D09689A
:100B900088B201B07047FFFF81B0CDF800E08CB2A1
:100BA0001546774B00EA03031E461846FFF702FD81
:100BB000B4F1FF0F0CD1734B9D4203D14FF033338F
:100BC0003360D9E0422D03D14FF044333360D3E09A
:100BD0004FF6FF739C4214D16A4B9D4207D14FF0F0
:100BE00033333360341D4FF033332360C4E0422D80
:100BF00007D14FF044333360341D4FF0443323604A
:100C0000BAE00021002005F001030BB100211DE036
:100C100005F0020333B105F4C0730BB1082100E005
:100C2000042113E005F0040333B105F020030BB1F8
:100C3000042100E0002109E005F0080333B105F0CC
:100C400020030BB10C2100E00821FFE74E4B05EA21
:100C500003030BB1032009E005F400730BB102207C
:100C600004E005F480630BB10120FFE705F00C03FD
:100C70000BB10143FFE704F0FF039BB2002B3BD015
:100C8000376800201FFA84F832462E4608282CD2F6
:100C90004FF0010303FA00F408EA0403A34222D14F
:100CA00085004FF00F03AB40DB4307EA030401FA72
:100CB00005F344EA03031D4606F48173B3F5817F0F
:100CC00005D102F214044FF001038340236006F0C3
:100CD0008203822B05D102F210044FF001038340FE
:100CE00023602F46FFE7401CD0E717601FFA88F00B
:100CF0000F463146164602E00F462946A0B2B0F133
:100D0000FF0F39D9331DD3F800800022082A30D2D2
:100D100002F208044FF0010303FA04F400EA0403AA
:100D2000A34224D195004FF00F03AB40DB4308EA08
:100D3000030807FA05F348EA030801F48173B3F5E1
:100D4000817F07D106F2140502F208044FF0010377
:100D5000A3402B6001F08203822B07D106F210051D
:100D600002F208044FF00103A3402B60FFE7521C7E
:100D7000CCE7331DC3F80080DDF800E001B0704718
:100D800000FCFFFF140008000008080088B0CDF840
:100D900000E00E46554B98420DD1012464B2544BED
:100DA0001C60544C544B1C60544C554B1C60554CAF
:100DB000554B1C600FE0554B98420CD1012464B296
:100DC000534B1C60534C4C4B1C60534C4C4B1C60A5
:100DD000524C4D4B1C60019602901046FFF762FB8F
:100DE0000298019E031D1B689CB26FF03F0304EA4A
:100DF00003039DB203AB01901846FFF7FFFA019879
:100E0000059F059C464BB4FBF3F399B29BB245EAB0
:100E10000304A4B2031D1C600024036864F30003F0
:100E2000036000223F4B9E4212D87300B7FBF3F4DD
:100E3000A4B2042C02D204231C46FFE742EA0403B6
:100E40009AB200F220044B1C9BB2236091B23FE0A7
:100E5000032306FB03F4B7FBF4F31FFA83F819230B
:100E600006FB03F5B7FBF5F31FFA83F908FB04F45F
:100E700009FB05F33C1BFB1A9C4205D20323734379
:100E8000B7FBF3F4A4B206E019237343B7FBF3F402
:100E9000A4B244F4804440F6FF7304EA030313B998
:100EA00044F00104FFE744F400439BB21A4392B2BA
:100EB00000F2200540F22C1301FB03F4A4B240F22F
:100EC000E833B4FBF3F39BB25B1C9BB22B6091B293
:100ED00000F21C031960002303600124036864F31B
:100EE00000030360DDF800E008B0704700540040E4
:100EF000D4034242C5150000780100200516000009
:100F00007C010020B5140000800100200058004042
:100F1000D80342429D140000291600003D13000032
:100F200040420F00A086010089B0CDF800E0834662
:100F300098B28C46BDF824100A9E04ACADF804109B
:100F4000ADF808002046FFF759FABDF80800BDF8D3
:100F50000410644CA34512D101256DB2624C25608A
:100F6000624D634C2560634D634C2560634D644C5A
:100F70002560644D644C2560079C039456E0634CE7
:100F8000A34512D101256DB2614C2560614D584CCD
:100F90002560614D584C2560604D594C2560604D71
:100FA000594C2560069C039440E05E4CA34512D149
:100FB00001256DB25C4C25605C4D4D4C25605C4D4F
:100FC0004D4C25605B4D4E4C25605B4D4E4C256075
:100FD000069C03942AE0594CA34512D101256DB219
:100FE000574C2560574D424C2560574D424C25606B
:100FF000564D434C2560564D434C2560069C03944A
:1010000014E0544CA34511D101256DB2524C25601A
:10101000524D374C2560524D374C2560514D384C60
:101020002560514D384C2560069C0394ADF80410A2
:10103000ADF808003046FFF735FABDF80800BDF8F6
:1010400004100BF1100500242C600BF110052C6826
:101050000C432C600BF10C0500242C6018B140F4FB
:10106000806080B2FFE70BF10C052C6804432C6014
:101070000BF10C060125346865F34D3434600BF137
:101080000C060125346865F3C30434600BF10C06CB
:101090000125346865F3820434600BF114050024E3
:1010A0002C60039D192465434FEA8C04B5FBF4F7CB
:1010B0006424B7FBF4F42601350964246C433C1B1B
:1010C000240104F232056424B5FBF4F404F00F04A7
:1010D00046EA04040BF10805A4B22C60DDF800E038
:1010E00009B07047003801403803424285160000BD
:1010F00084010020D9140000880100200915000097
:101100008C010020251400009001002000440040C4
:10111000C403424269160000851400006D140000EB
:101120005514000000480040C80342425915000011
:101130003D140000F114000061130000004C004059
:10114000CC034242211500007913000091130000E6
:10115000F513000000500040D00342423D1500004E
:101160000D140000DD130000A913000082B0CDF8BB
:1011700000E0029E4FF00005564CA04206D1564CAE
:101180002768564C2568564C25600AE0554CA0420D
:1011900006D1554C2768554C2568514C256000E018
:1011A0002F46534C276000F210054C00A4B22C606F
:1011B000B9460746904635461E464E493846FFF723
:1011C00093F888B94A4C24686CB1B9F1000F06D184
:1011D0000420434C2468A0474FF6FF7076E0A9F145
:1011E00001008146FFE7E8E70020019729463746DE
:1011F000019E7C1EA04226D206F2100508EB0004D8
:1012000024782C603A4CD4F8009082460D463A4936
:101210003046FFF769F888B9354C24686CB1B9F1EC
:10122000000F06D104202E4C2468A0474FF6FF7013
:101230004CE0A9F101008146FFE7E8E70AF101046B
:1012400020462946D5E706F2100508EB000424786D
:101250002C60274C27680D4628493046FFF744F894
:1012600070B9234C246854B137B904201C4C24684D
:10127000A0474FF6FF7029E0781E0746FFE7EBE72F
:10128000012D05D10125346865F3492434601CE043
:101290000125346865F308243460154C2768354609
:1012A00017492846FFF720F878B9114C24685CB13B
:1012B00037B904200A4C2468A0474FF6FF7005E0B8
:1012C0007C1E20460746FFE7EAE70020DDF800E045
:1012D00002B070470054004044010020700100201B
:1012E0006C010020005800404801002074010020DB
:1012F0004C010020820007008000070084000700E6
:101300000100030081B0ADF800100146BDF80000F7
:101310000B68C3F3C01202B9FAE70A1D106001B0EE
:101320007047FFFF81B0CDF800E04FF0420289B274
:10133000FFF732FCDDF800E001B0704781B0CDF876
:1013400000E008B413460A46C1B20448FFF70EFF96
:1013500001B0DDF800E001B0704700BF0058004068
:1013600081B0CDF800E00348FFF704FCDDF800E0B1
:1013700001B070470048004081B0CDF800E003485C
:10138000FFF7FEFBDDF800E001B07047004C0040C5
:1013900081B0CDF800E00348FFF7B8F9DDF800E0D0
:1013A00001B07047004C004081B0CDF800E0034828
:1013B000FFF7E0FBDDF800E001B0704700500040AF
:1013C00081B0CDF800E0044A89B2FFF7E5FBDDF813
:1013D00000E001B0704700BF1400080081B0CDF8F4
:1013E00000E00348FFF792F9DDF800E001B0704734
:1013F0000050004081B0CDF800E00348FFF7BAFB91
:10140000DDF800E001B07047004C004081B0CDF83D
:1014100000E00348FFF7B4FBDDF800E001B07047DF
:101420000050004081B0CDF800E00348FFF7A2FB78
:10143000DDF800E001B070470038014081B0CDF820
:1014400000E00348FFF79CFBDDF800E001B07047C7
:101450000048004081B0CDF800E00348FFF78AFB68
:10146000DDF800E001B070470044004081B0CDF8E5
:1014700000E00348FFF74AF9DDF800E001B07047EB
:101480000044004081B0CDF800E00348FFF778FB4E
:10149000DDF800E001B070470044004081B0CDF8B5
:1014A00000E00348FFF7CCF8DDF800E001B070473A
:1014B0000058004081B0CDF800E008B413460A4659
:1014C000C1B20448FFF752FE01B0DDF800E001B000
:1014D000704700BF0054004081B0CDF800E00348E1
:1014E000FFF74EFBDDF800E001B070470038014027
:1014F00081B0CDF800E00348FFF708F9DDF800E01F
:1015000001B070470048004081B0CDF800E00348CA
:10151000FFF7FCF8DDF800E001B07047003801404B
:1015200081B0CDF800E081B20348FFF7EBFEDDF8B3
:1015300000E001B0704700BF004C004081B0CDF822
:1015400000E081B20348FFF7DDFEDDF800E001B006
:10155000704700BF0050004081B0CDF800E081B27C
:101560000348FFF7CFFEDDF800E001B0704700BF91
:101570000048004081B0CDF800E0019D2C4610B439
:1015800008B493B28AB201460348FFF7CDFC02B01B
:10159000DDF800E001B070470048004081B0CDF8B0
:1015A00000E0019D2C4610B408B493B28AB2014603
:1015B0000348FFF7B9FC02B0DDF800E001B0704766
:1015C0000038014081B0CDF800E00348FFF738F85B
:1015D000DDF800E001B070470054004081B0CDF864
:1015E00000E0019D2C4610B408B493B28AB20146C3
:1015F0000348FFF799FC02B0DDF800E001B0704746
:101600000044004081B0CDF800E008B413460A461B
:10161000C1B20448FFF780F801B0DDF800E001B086
:10162000704700BF0054004081B0CDF800E008B41E
:1016300013460A46C1B20448FFF76EF801B0DDF860
:1016400000E001B0704700BF0058004081B0CDF805
:1016500000E00A4601460348FFF798FBDDF800E08A
:1016600001B070470054004081B0CDF800E081B275
:101670000348FFF747FEDDF800E001B0704700BF08
:101680000044004081B0CDF800E081B20348FFF78C
:1016900039FEDDF800E001B0704700BF00380140BE
:1016A00082B0CDF800E040F20004ADF80440064CF2
:1016B0002468A047BDF9041041EA000000B2DDF83B
:1016C00000E002B0704700BF5401002081B00A461C
:1016D00081B200208DB21146052805D20B182022B8
:1016E0001A70401CC0B2F7E70B1800221A70401E97
:1016F000C0B20C180A23B5FBF3F203FB125292B2EC
:10170000303222700A22B5FBF2F292B295B202B9DF
:1017100002E0401EC0B2ECE701B070470268064923
:101720000A60011D0A6805490A6000F208010A689A
:1017300003490A60704700BF540100206401002083
:101740005801002081B0CDF800E00178CCB2A0B201
:10175000034C2468A0470020DDF800E001B070478A
:101760005001002000F218010A6801490A60704720
:101770006001002081B0CDF800E0A9E0012905D189
:1017800040F210016548FFF7CDFD04E040F2100182
:101790006248FFF715FEBBE0012905D140F20401C4
:1017A0005F48FFF7BFFD04E040F204015C48FFF72B
:1017B00007FEADE0012905D142F200015948FFF7CB
:1017C000B1FD04E042F200015648FFF7F9FD9FE049
:1017D000012905D140F200415148FFF7A3FD04E083
:1017E00040F200414E48FFF7EBFD91E0012905D1A1
:1017F00040F600014A48FFF795FD04E040F600017D
:101800004748FFF7DDFD83E0012905D141F20001E2
:101810004348FFF787FD04E041F200014048FFF72D
:10182000CFFD75E0012905D140F201013B48FFF7EA
:1018300079FD04E040F201013848FFF7C1FD67E09F
:10184000012905D140F200413648FFF76BFD04E065
:1018500040F200413348FFF7B3FD59E0012905D1BB
:1018600040F200212F48FFF75DFD04E040F2002127
:101870002C48FFF7A5FD4BE0012905D140F20011EE
:101880002848FFF74FFD04E040F200112548FFF71C
:1018900097FD3DE0012905D140F240012248FFF7C4
:1018A00041FD04E040F240011F48FFF789FD2FE0B1
:1018B000012905D140F280011B48FFF733FD04E008
:1018C00040F280011848FFF77BFD21E0012020E075
:1018D00000283FF453AF01283FF45EAF02283FF4E5
:1018E00069AF03283FF474AF04283FF47FAF0528A5
:1018F0003FF48AAF06283FF495AF0728A0D0082808
:10190000ACD00928B8D00A28C4D00B28D0D0DDE745
:101910000020DDF800E001B0704700BF0008014082
:101920000010014000140140000C014081B0CDF8CE
:1019300000E0094902B440F2000340F2000240F224
:101940000001FFF717FE01B0044A05490A600020B4
:10195000DDF800E001B07047DC24000059150000FC
:101960005001002081B0CDF800E00168084604492C
:10197000FFF76CFE0020DDF800E001B0704700BF0B
:101980007024000081B0CDF800E0A9E0012905D164
:1019900040F220016548FFF7C5FC04E040F2200159
:1019A0006248FFF70DFDBBE0012905D140F20801B7
:1019B0005F48FFF7B7FC04E040F208015C48FFF71E
:1019C000FFFCADE0012905D144F200015948FFF7C1
:1019D000A9FC04E044F200015648FFF7F1FC9FE047
:1019E000012905D140F200415148FFF79BFC04E07A
:1019F00040F200414E48FFF7E3FC91E0012905D198
:101A000040F600014A48FFF78DFC04E040F6000173
:101A10004748FFF7D5FC83E0012905D141F20001D9
:101A20004348FFF77FFC04E041F200014048FFF724
:101A3000C7FC75E0012905D141F200013D48FFF7DF
:101A400071FC04E041F200013A48FFF7B9FC67E09D
:101A5000012905D140F600013648FFF763FC04E098
:101A600040F600013348FFF7ABFC59E0012905D1EE
:101A700040F240012F48FFF755FC04E040F24001DE
:101A80002C48FFF79DFC4BE0012905D140F22001D5
:101A90002848FFF747FC04E040F220012548FFF703
:101AA0008FFC3DE0012905D140F240012248FFF7BB
:101AB00039FC04E040F240011F48FFF781FC2FE0B1
:101AC000012905D140F280011B48FFF72BFC04E0FF
:101AD00040F280011848FFF773FC21E0012020E06C
:101AE00000283FF453AF01283FF45EAF02283FF4D3
:101AF00069AF03283FF474AF04283FF47FAF052893
:101B00003FF48AAF06283FF495AF0728A0D00828F5
:101B1000ACD00928B8D00A28C4D00B28D0D0DDE733
:101B20000020DDF800E001B0704700BF0008014070
:101B30000010014000140140000C014081B0CDF8BC
:101B400000E0016808460449FFF780FD0020DDF849
:101B500000E001B0704700BF7024000081B0CDF8F4
:101B600000E0094902B440F2000340F2000240F2F2
:101B70000001FFF733FD01B0044A05490A60002067
:101B8000DDF800E001B07047042400006916000091
:101B90005001002081B0CDF800E0094902B440F2C4
:101BA000000340F2000240F20001FFF7F7FC01B031
:101BB000044A05490A600020DDF800E001B07047E2
:101BC00098230000851600005001002082B0CDF857
:101BD00000E040F20004ADF80440054C2468A04742
:101BE000BDF90440044320B2DDF800E002B07047C4
:101BF0006401002081B0CDF800E0094902B440F250
:101C0000000340F2000240F20001FFF7E7FC01B0E0
:101C1000044A05490A600020DDF800E001B0704781
:101C200004240000691600005001002082B0CDF8A5
:101C300000E040F20004ADF80440044C2468A047E2
:101C4000BDF90400DDF800E002B070475801002043
:101C500041F6FF27C0F2B7077F1EFDD100BF00BFCE
:101C600000BF00BF00BF704781B0CDF800E00E4656
:101C7000002183B2002805DA0121404280B280B2FF
:101C80008FB201E098B28FB23146FFF71FFD0621F7
:101C90003446B8B2002908D963184A1E92B2A21875
:101CA00012781A70491E89B2F4E72022227070B1AE
:101CB000002081B2204642181278202A02D1491C05
:101CC00089B2F8E74A1E92B283182D221A70DDF805
:101CD00000E001B07047FFFF4DF2BF47C0F20107BF
:101CE0007F1EFDD100BF00BF00BF00BF00BF704717
:101CF00082B0CDF800E001A90870FFF7D1FC01AA7D
:101D00000C4909780023C8B211460122FFF75EFF93
:101D10000DF10502074909780123C8B211460122D5
:101D2000FFF784FF0DF105010978C8B2DDF800E086
:101D300002B070475C01002044F67F77C0F21207C2
:101D40007F1EFDD100BF00BF00BF00BF00BF7047B6
:101D500081B0CDF800E011E00846FFF7E7FD16E09E
:101D60000846FFF747FF12E00846FFF713FF0EE0B3
:101D70000846FFF7F3FE0AE0012008E00028EBD058
:101D80000128EDD02028EFD03028F1D0F4E7DDF89D
:101D900000E001B07047FFFF82B0CDF800E001AA7B
:101DA0001070521C1170FFF77BFC01AB054A1278D2
:101DB00019460123D0B20222FFF708FFDDF800E048
:101DC00002B070475C01002081B0CDF800E004460D
:101DD000054B1A700846FFF7A1FC2046FFF7C2FC2E
:101DE000DDF800E001B070475C01002083B0CDF861
:101DF00000E0024610460D228DF808200A228DF8D8
:101E000009201FE0FFF79EFC23E002782AB1019031
:101E1000FFF798FC0198401CF7E71AE002782AB116
:101E20000190FFF78FFC0198401CF7E702AA1046CB
:101E3000FFF788FC0DF109021046FFF783FC08E06C
:101E4000062007E00029DDD00129DED00229E5D0F7
:101E5000F6E70020DDF800E003B0704781B0CDF870
:101E600000E08B4609E05846FFF768FE0AE0584656
:101E7000FFF778FD06E0012004E00028F3D00128F8
:101E8000F5D0F8E7DDF800E001B0704781B0CDF89B
:101E900000E05FFA81F95FFA82FA0FE05FFA8AF1F7
:101EA0005FFA89F0FFF766FC0DE05FFA8AF15FFAEE
:101EB00089F0FFF767FD06E0012004E00028EDD07F
:101EC0000128F2D0F8E7DDF800E001B07047FFFF2D
:101ED00081B01CF8019B0BF8019BBBEB0A0FF8D1FA
:101EE00001B0704781B0CDF800E0512209490A489D
:101EF000FFF76AFF09480221FFF778FF084802212F
:101F0000FFF774FF07480221FFF770FFDDF800E0DC
:101F100001B07047C425000048250000DB00002008
:101F2000F90000202401002081B01548006840F02D
:101F3000010113480160134913480160104801680A
:101F4000124801400E4801600D4801686FF480207E
:101F500001400B4801600C4801686FF4FE0001402D
:101F600009480160064801686FF0A050014004482C
:101F700001604FF000010648016001B0704700BFEA
:101F8000001002400000FFF004100240FFFFF6FEC8
:101F90002C10024081B04FF000094FF0000CBDEB57
:101FA0000A0F04DCBDEB0B0F01DBD446EA464BF80D
:101FB000049BBBEB0A0FFAD1BCEB0A0F05DDE2462E
:101FC000D9F800B00BF1040BF1E701B07047FFFF47
:101FD00081B0CDF800E0002206210020FFF756FF77
:101FE000074801460020FFF739FF42F280512020C8
:101FF000FFF7AEFEFFF7A0FEDDF800E001B070478E
:10200000D025000081B0CDF800E029480221FFF77B
:10201000EDFE00212748017026480078FF280BD2EA
:10202000244801780078FFF7B7FEFFF755FE2149F5
:102030000878401C0870EFE71F480221FFF7D6FE22
:102040001E480221FFF7D2FE1D480221FFF7CEFEF7
:10205000FFF7FEFD00211748017016480078FF28A1
:102060001BD214480078FFF743FE16490870FFF7AB
:1020700033FE144800781449FFF7F6FD0121124899
:10208000FFF7B4FE11480121FFF7B0FEFFF754FE41
:1020900008490878401C0870DFE70D480221FFF767
:1020A000A5FEFFF7D5FDDDF800E001B0704700BFE9
:1020B0000000002042010020260000203A000020FD
:1020C00065000020430100207C000020AE000020BD
:1020D000B000002081B002490248016001B07047A1
:1020E000401901006801002081B0FEE701B070478F
:1020F00000F00EF800F0BEFAFFF7ECFF00F06CFA0B
:10210000FFF766FFFFF7EEFEFFF77CFFFCE7FEE759
:1021100081B0CDF800E0464A464B474C47494BF664
:102120008030814206D94648006840F002014448A8
:10213000016011E045F6C050814206D94048006870
:1021400040F001013E48016006E03D4801686FF043
:10215000070001403A480160FFF7E6FE3948036096
:1021600039480460394802EA00013948016002F048
:10217000010040B119463648006800F0020000280E
:1021800000D1F8E700E0194602F4803040B10B4678
:102190002F48006800F40030002800D1F8E700E084
:1021A0000B4602F0805068B12948006840F0805129
:1021B000274801602648006800F00050002800D140
:1021C000F8E7FFE702F0806078B12148006840F04E
:1021D00080611F48016011461A461D48006800F0E2
:1021E0000060002800D1F8E701E011461A4601F02E
:1021F000807070B11648006840F08071144801602A
:1022000011461348006800F0007000B9F9E70A466B
:10221000FFE70C48006800F00C01900000F00C0093
:10222000814200D0F5E7DDF800E001B0704700BF63
:102230008100010502841D004406010040190100CF
:1022400000200240041002402C100240FFFF0F004B
:102250000010024020577269746520746F206D650C
:102260006D6F7279206E756D6265722066726F6D2A
:10227000203020746F203235350020577269746524
:10228000207374617475733A20444F4E45002D2DB0
:102290002D2D2D2D2D2D2D2D2D2D2D2D2D2D2D2D6E
:1022A0002D2D2D2D2D2D2D2D2D2D2D2D2D2D2D2D5E
:1022B0002D2D2D2D2D2D2D2D002052656164696E43
:1022C000672066726F6D206D656D6F7279203A00C0
:1022D00000000000000000000000000000000000FE
:1022E00000000000000000000000000000000000EE
:1022F00000000000000000000000000000000000DE
:10230000000020002D2D2D2D2D2D2D2D2D2D2D2D91
:102310002D2D2D2D2D2D2D2D2D2D2D2D2D2D2D2DED
:102320002D2D2D2D2D2D2D2D2D2D2D2D2D2D002017
:102330002020202020202020202020202D2D2D2D69
:102340002D2D2D2D2D2D2D2D2D2D2D2D0020202011
:1023500020202020202020202020202045455052D1
:102360004F4D20436C69636B2020202020202020CB
:10237000202020202020200020202020202020207D
:1023800020202020202D2D2D2D2D2D2D2D2D2D2DBE
:102390002D2D2D2D2D00FFFF090000000A0000004B
:1023A000FFFFFFFF00000000000000000000000031
:1023B000000000000000000000000000000000001D
:1023C00000000000000000000000000018080000ED
:1023D00018000000000000000000000000000000E5
:1023E00000000000000000000000000000000000ED
:1023F00000000000000000000000000000000000DD
:10240000040000003500000036000000FFFFFFFF61
:1024100000000000000000000000000000000000BC
:1024200000000000000000000000000000000000AC
:102430000000000000000000180800001800000064
:10244000000000000000000000000000000000008C
:10245000000000000000000000000000000000007C
:10246000000000000000000000000000080000085C
:102470001600000017000000FFFFFFFF0000000033
:10248000000000000000000000000000000000004C
:10249000000000000000000000000000000000003C
:1024A00000000000280800002808000000000000CC
:1024B000000000000000000000000000000000001C
:1024C000000000000000000000000000000000000C
:1024D00000000000000000000200000038000000C2
:1024E00039000000FFFFFFFF0000000000000000B7
:1024F00000000000000000000000000000000000DC
:1025000000000000000000000000000000000000CB
:102510001808000018000000000000000000000083
:1025200000000000000000000000000000000000AB
:10253000000000000000000000000000000000009B
:1025400000000000300014087D020000710200004D
:102550006502000089020000AD020000A102000037
:10256000950200003502000029020000410200002F
:10257000590200004D020000FFFFFFFFFFFFFFFFB9
:10258000FFFFFFFFFFFFFFFFFFFFFFFFFFFFFFFF5B
:10259000FFFFFFFFFFFFFFFFFFFFFFFFFFFFFFFF4B
:1025A000FFFFFFFFFFFFFFFF000000000102030429
:1025B00001020304060708090000000000000000F3
:1025C00000000000C5150000B5140000051600004D
:1025D000A08601000204060800B5DFF824B0DFF889
:1025E00024A0DFF824C0FFF773FCDFF820B0DFF889
:1025F00020A0DFF820C0FFF76BFC00BD704700BFD4
:10260000000000204201002054220000440100206C
:1026100050010020B8250000FFFFFFFFFFFFFFFF74
:10262000FFFFFFFFFFFFFFFFFFFFFFFFFFFFFFFFBA
:10263000FFFFFFFFFFFFFFFFFFFFFFFFFFFFFFFFAA
:10264000FFFFFFFFFFFFFFFFFFFFFFFFFFFFFFFF9A
:10265000FFFFFFFFFFFFFFFFFFFFFFFFFFFFFFFF8A
:10266000FFFFFFFFFFFFFFFFFFFFFFFFFFFFFFFF7A
:10267000FFFFFFFF00B5DFF810B0DFF810A0FFF795
:1026800089FC00BD704700BF0000002094010020BD
:00000001FF
